:020000040800F2
:10300000B81D002041310008FB550008B5510008EB
:1030100000000000000000000000000000000000B0
:10302000000000000000000000000000C35C000879
:103030000000000000000000FF3000083D5D0008B7
:1030400053310008000000005331000853310008DC
:103050005331000853310008533100085331000840
:1030600000000000DD35000853310008ED35000890
:10307000B934000853310008533100080000000043
:10308000533100085331000800000000533100089C
:103090005331000853310008533100085331000800
:1030A00053310008533100085331000853310008F0
:1030B000116500080348854600F0DCF90048004728
:1030C000B1720008B81D0020084B1968086820304C
:1030D00080F30988022080F31488BFF36F8F3FBC10
:1030E000AE4608BC04BC62B618470000D4000020FD
:1030F000EFF3108072B6704780F310887047EFF3DB
:1031000009800E4B1A6820381060F0C044464D46C6
:1031100056465F46F0C008B572B605F035F962B69E
:103120000CBC116808681030F0C8A046A946B24629
:10313000BB4680F309882038F0C81847D400002027
:103140000448804704480047FEE7FEE7FEE7FEE745
:10315000FEE7FEE7A15D0008B530000830B50B467C
:10316000014600202022012409E00D46D5409D4261
:1031700005D31D469540491B2546954040191546E7
:10318000521E002DF1DC30BD70B50024254600280C
:1031900001DA01244042002901DA01254942FFF702
:1031A000DDFFAC4200D04042002C00D0494270BD4F
:1031B00010B5202A04DB0846203AD040002110BD7B
:1031C0000B46D340D0402024A21A91400843194610
:1031D00010BD03460B439B0703D009E008C9121F2B
:1031E00008C0042AFAD203E00B780370401C491C83
:1031F000521EF9D27047D2B201E00270401C491E43
:10320000FBD270470022F6E710B513460A46044683
:103210001946FFF7F0FF204610BD03460A780270FA
:10322000401C491C002AF9D118467047F0B51FB45C
:1032300088B00B990998002448400999C00F4900AB
:1032400049080991C0070B990090490049080B9162
:1032500009990898A64608431CD00B990A98084378
:1032600018D0099801244000420D4800410D0998EA
:1032700024050003000B204309900B980003000B6A
:1032800020430B9050181C4940180022019014460E
:10329000104605E0002001460DB0F0BD032801DA1C
:1032A000034600E003239C46C11A0AAE0AE05F0011
:1032B00008ADED5B4F00F75B7D430027AA187C410A
:1032C000491C5B1E6145F2DD410004AB5A522104EA
:1032D000120C0A43240C401C0828DFDB01980290E2
:1032E0000099704601910090059B049A07990698F1
:1032F00000F06DF8D0E700000DFCFFFF0EB50549AA
:103300000291002100910A460B46019100F05FF8FE
:1033100003B000BD330400004A0009030123090B78
:103320001B051943094B10B5520D9A4201DA0020D2
:1033300010BD064B34339A4203DC9A1AFFF738FF6C
:1033400010BD03495118884010BD0000FF03000064
:10335000CDFBFFFFF0B51FB40646002082B0054646
:103360004024019100901BE0019922460F4630460F
:10337000FFF71EFF049A059B801A994110D310464F
:103380001946224600F088F8361A8F4101972246E6
:1033900001200021009F00F07FF838184D41009077
:1033A0002046641E0028DFDC019B00982946324637
:1033B00007B0F0BD10B5002B08DA0024401C6141B5
:1033C00092185B411A4301D14008400010BDF0B58E
:1033D0001FB482B005460C0003D0084603F0B2F8D3
:1033E00002E003F0AFF82030024600902146284664
:1033F00000F052F8049B059A04460F461843114307
:10340000084314D0184610431BD0009840210A1AD4
:1034100018460599FFF7CCFE05460E46009A059919
:10342000049800F039F8084305D0012004E0204654
:10343000394607B0F0BD0020C11705430E432C43A9
:10344000374300990E986305401A7905E40A002273
:103450000C43FD0A0A3002D500200146E9E70105C8
:10346000101969410C9C0D9D00196941FFF7A2FFDD
:10347000DFE70000064C0125064E05E0E36807CCB7
:103480002B430C3C98471034B442F7D3FFF716FE99
:103490006C9200088C92000810B5202A04DB0146CB
:1034A000203A9140002010BD914020239C1A0346F1
:1034B000E3401943904010BD10B5024800F0ADF94B
:1034C00010BD0000C401002010B50146406A426CE6
:1034D00050231A420AD1416C012252021143416425
:1034E0000168CA681205920F05D020E0C06B026B1C
:1034F0000846904710BD026A002A18D10A681207D0
:1035000015D58A6853070122002B09DB4B680C2470
:10351000A3434B60416C130299431143416406E09D
:10352000416C202319434164816C1143816400F094
:1035300071F910BD10B5406A416C402211434164DD
:10354000816C04221143816400F066F910BD10B54E
:10355000406A00F060F910BDF8B504460020009004
:10356000206881688907890F012905D10168C90789
:103570002CD1C168090429D48168154A102611404C
:103580000125002915D1816829438160124811491C
:103590000068FFF7E3FD00E0401E00900028FBD12B
:1035A00000F0C0FC07460CE000F0BCFCC01B022889
:1035B00007D9606C30436064A06C2843A06401208C
:1035C000F8BD20680068C043C007EDD10020F8BDF9
:1035D0001700008040420F00D000002010B50248C4
:1035E00000F040FB10BD00002403002010B503488C
:1035F00000F038FB024800F035FB10BDAC030020A2
:103600006803002010B504460068054940181421DD
:10361000FFF7A4FD800020640248E06310BD0000B5
:10362000F8FFFDBF0000024030B5056C0124AC403E
:10363000C56B6C60046863604368102B036803D03B
:1036400099600068C26030BD9A600068C16030BD9A
:103650007047F8B50546044640352878002601280D
:1036600008D001202870206881688907890F012906
:1036700008D101E00220F8BD0168C90738D1C1684E
:10368000090435D4616CFF220132914302221143B7
:103690006164C1688907890F0091C1688908890040
:1036A000C1602068816892071143816000F03AFC94
:1036B00007460EE000F036FCC01B022809D9606CFA
:1036C00002218843102108436064002028700120F3
:1036D000F8BD206880680028ECDB2068C168009A8B
:1036E0001143C160606C80088000401C606404E08D
:1036F000606C202108436064012600202870304659
:10370000F8BD0000F8B50025044640340095227845
:10371000012A39D00122227003689E68760767D497
:10372000384F4E68BE424DD09E6A0F78BA4016435D
:103730009E620123826B1B079A421FD0012A1DD073
:10374000022A1BD0032A19D0042A17D0052A15D023
:10375000062A13D0072A11D002688B6856697607AB
:10376000760FB3420AD05369DB08DB00536100686F
:1037700042690B7A5B075B0F1A4342610A68102AA1
:1037800004D0112A02D038E00220F8BD1E48836818
:10379000102A07D00122920513438360086810287D
:1037A00003D02AE00122D205F6E71948174900683C
:1037B000FFF7D4FC0A21484300E0401E0090002897
:1037C000FBD11AE0986A0E78B2409043986209687B
:1037D000102901D0112910D10B488268102904D07A
:1037E000012189058A43826007E00121C905F9E7C3
:1037F000416C20221143416401250020207028469D
:10380000F8BD0000011000000027014040420F00F9
:10381000D000002070477047704770B504460068BC
:103820000168490702D54168490705D401680907BD
:1038300030D5416809072DD5616CC90604D4616C87
:103840000122520211436164C1680C250905890FE8
:1038500000291AD1216A002917D10168090714D556
:1038600081684A070121002A08DB4268AA434260B6
:10387000606C0A0290430843606406E0606C20229A
:1038800010436064A06C0843A0642046FFF7C2FFA9
:10389000206805602068016809060DD540680006AB
:1038A0000AD5606C0121090408436064204600F0D9
:1038B000D7F821688020086020680168C90613D500
:1038C0004168C90610D5616B1025012902D0C16875
:1038D000C90707D0A16C02221143A16405602046EC
:1038E000FFF79AFF2068056070BD0000F8B500255D
:1038F0000446002803D0606C002802D008E00120B4
:10390000F8BD0020A06440210855204600F0AAF828
:10391000606C1022C006002870DB206881684907AF
:103920006CD4616C1301994302231943616481686B
:103930008907890F012905D10168C9070FD1C1681D
:1039400009040CD4C16818239943A3681943C160C2
:10395000206801696368890089081943016120684A
:10396000C1683D4B1940C160A069E1698003C9038A
:103970000843216A4B031843636B012B02D00123D8
:103980001B0300E000231843E36818432369022B5C
:1039900009D000231843236B666A5B001843012398
:1039A000012E02D00AE00423F4E7002927D0616C3D
:1039B000202631436164A16C1943A164A16A0E46BB
:1039C000FF3EC23E02D0E66A314308432168CE681A
:1039D0000643CE600126A16B3607B14213D0012900
:1039E00011D002290FD003290DD004290BD00529AD
:1039F00009D0062907D0072905D010E028E00121C9
:103A000009040843DAE721684E69F608F6004E61BA
:103A100021684E69278F7F077F0F3E434E612168E3
:103A2000C9680E4E3140814207D10020A064606C0D
:103A300080088000401C606408E0606C02218843BC
:103A400010436064A06C1843A06401252846F8BDAB
:103A5000606C10436064F8E71902FEFFE7FF3F83E4
:103A60007047000070B586B0054614216846FFF720
:103A7000C9FB26492868884246D125498A694015EC
:103A800002438A618A69024005924A690002024340
:103A90004A614A69024005924A69400002434A610C
:103AA0004969032401400591022000266A4651C25B
:103AB00009206946C00600F085F90094694615485A
:103AC0000296019400F07EF91348144C41C4802002
:103AD000266060604000A0608000E06020202061DF
:103AE000000260610D48083C00F00AF9002801D08E
:103AF000FFF7AEFDEC63002203210C20656200F0AD
:103B000063FA0C2000F056FA06B070BD00240140A4
:103B10000010024000040048080002402403002076
:103B200070B50446216800208968490721D42546DC
:103B30004035297801291CD001212970E16901292A
:103B400004D02046FFF708FD002811D1616C0A4A15
:103B50001140FF220132114361640021A1642970E8
:103B600022681C21116021688A6804231A438A6034
:103B700070BD022070BD0000FEF1FFFFF7B50446E6
:103B800000680025806840073DD4264640363078DE
:103B900001280AD001273770E069012807D02046A4
:103BA000FFF7DAFC050002D02EE00220FEBD606CBB
:103BB00016490840FF210131084360640020A064D9
:103BC0003070E16B12488862E16B1248C862E16BA9
:103BD0001148086321681C20086020684168102291
:103BE000114341602068C1683943C1602168E06BBE
:103BF0004031029B019A00F0AFF8206881680422EE
:103C00001143816000E002252846FEBDFEF1FFFF62
:103C1000C93400084F3500083535000870B5002458
:103C2000014620314A78022A03D00421816301240D
:103C300016E0026813680E25AB4313600268136830
:103C40005B085B0013600122056C1346AB40C56B3B
:103C50006B604A7000220A70416B002900D08847CF
:103C6000204670BDF0B4C16B0D6801680C68042279
:103C7000066C1346B3402B420DD063070BD50B687F
:103C80009B0602D40B6893430B60016C8A40C16BA6
:103C90004A60C16A19E00227B74002462F4001235B
:103CA0002032002F15D0A70713D50C68A40604D422
:103CB0000C680A25AC430C605370036C02219940D8
:103CC000C36B596000211170816A002916D0F0BCC5
:103CD00008470827B7402F4210D024070ED50C689C
:103CE0000E25AC430C60046C1946A140C46B6160A6
:103CF0008363537000211170016BE6E7F0BC7047DD
:103D000070B5040024D00220214620310D464870B1
:103D1000226811680F48A36801406068266918434B
:103D2000E3683343184363691843A3691843E3699D
:103D30001843084310602046FFF764FC0020A0628F
:103D4000E06220636063A06301216970287070BD28
:103D5000012070BD0FC0FFFFF8B504468C4620302F
:103D600001780025012909D0012606704178002735
:103D7000012905D0077002252846F8BD0220F8BDAC
:103D800002214170A7632068016849084900016069
:103D900061462046FFF748FCE06A00282068016879
:103DA00002D00E22114306E00A221143016020686E
:103DB0000168042291430160206801683143016079
:103DC000DAE70000F8B500238DE001249C40A4460A
:103DD00022407DD04C68022C01D0122C0CD1DC0882
:103DE000A40027183C6A5D07ED0E0F26AE40B443D1
:103DF0000E69AE4026433E6205685E000324B4406F
:103E00000F79A543BF07BF0FB7402F4307604D6829
:103E1000012D05D0022D03D0112D01D0122D0ED170
:103E20008568CF68A543B7402F43876047686546DC
:103E3000AF430D79ED06ED0F9D403D434560C568EC
:103E4000A5438C68B4402C43C4604C68E40049D559
:103E5000284CA56901263543A561A4699D08344015
:103E60000094254CAD002F19BC689D072E0F0F251F
:103E7000B540AC430925ED06A84201D100250FE06D
:103E80001E4DA84201D101250AE01D4DA84201D1D5
:103E9000022505E01B4DA84201D1032500E00525C0
:103EA000B5402543BD60184C25684E689543F60320
:103EB00000D51543256065684E689543B60300D567
:103EC00015436560A5684E689543F60202D500E08B
:103ED00008E01543A560E5684E689543B60200D535
:103EE0001543E5605B1C0A681446DC4000D06CE7B3
:103EF000F8BD00000010024000000140000400482E
:103F000000080048000C0048000401400069084017
:103F100000D001207047002A01D081617047816282
:103F2000704700000148006870470000CC00002086
:103F300002480168491C016070470000CC00002065
:103F400010B506480168102211430160032000F0FB
:103F500007F800F017F8002010BD00000020024014
:103F600010B5044600F0CAF87D21C900FFF7F6F845
:103F700000F0D2FD00222146501E00F025F800205E
:103F800010BD000008B50A48816901221143816112
:103F9000816911400091C26901040A43C261C0698C
:103FA0000022084003210090481F00F00DF808BDD2
:103FB00000100240C106C90E012088400149086076
:103FC0007047000000E100E010B501F017FB10BDE4
:103FD000F8B5054644480E460068C007C00FB04219
:103FE0000AD241480168490849003143016000682C
:103FF000C007C00FB0425CD128783C4C800705D583
:104000006068F0218843A968084360602878C00789
:104010003FD06868012813D02168022813D089078F
:10402000002946DA61688908890001436160FFF769
:1040300079FF6968074601290DD0022917D024E0CD
:1040400021688903ECE78901EAE7FFF76BFFC11BF1
:104050002748814217D860680007800F0128F4D1F3
:1040600017E0FFF75FFFC11B214881420BD8606852
:104070000007800F0228F4D10BE0FFF753FFC11BAC
:104080001B48814201D90320F8BD60680007800FFA
:10409000F3D115480168C907C90FB1420BD90168AE
:1040A00049084900314301600068C007C00FB042B1
:1040B00001D00120F8BD2878400706D560680721A7
:1040C00009028843E9680843606000F02DF86168E0
:1040D000084A0906090F515CC840074908600320D7
:1040E000FFF73EFF0020F8BD002002400010024014
:1040F0008813000020860008D000002001480068D6
:1041000070470000D0000020044805490068496855
:10411000044A4905490F515CC8407047D00000204F
:10412000001002403086000810B512A30FCB88B0F3
:104130006C460FC413A30FCB0FC416494A680C205A
:10414000134603401448042B0FD0082B0DD19302C3
:104150001B0F6C46E45CC96A04AB0907090F595C84
:10416000D20304D5FEF7FAFF604308B010BD0B4838
:104170006043FAE702030405060708090A0B0C0D61
:104180000E0F10100102030405060708090A0B0CA4
:104190000D0E0F100010024000127A0000093D00C1
:1041A000FEB504460078D04DC00747D068680007C8
:1041B000800F012807D068680007800F022809D106
:1041C0006868C00306D52868800337D56068002872
:1041D0007ED033E0012062680004012A11D0810002
:1041E000002A01D0052A10D02A6882432A60286854
:1041F000884328606068002814D0FFF793FE0646C5
:104200000CE0296801432960F4E72A680A432A6020
:10421000F7E7FFF787FE801B64286FD828688003C4
:10422000F7D50BE0FFF77EFE064604E0FFF77AFEC7
:10423000801B6428F1D828688003F7D420780126F1
:10424000800700283BDA68680007800F07D068689D
:104250000007800F022809D16868C00306D42868C7
:10426000800715D5E068012832D111E0E068002808
:10427000286815D030432860FFF754FE074604E055
:10428000FFF750FEC01B0228C7D828688007F7D563
:104290002868F82188432169C900084328600EE096
:1042A000400840002860FFF73DFE074604E0FFF7A6
:1042B00039FEC01B0228B0D828688007F7D42078C0
:1042C000000724D5E0690028686A10D0304300E078
:1042D00008E16862FFF726FE074604E0FFF722FECA
:1042E000C01B022899D8686A8007F7D50FE04008FC
:1042F00040006862FFF716FE074605E09DE0FFF705
:1043000011FEC01B022888D8686A8007F7D420787D
:1043100004274007002860DA00200190E869C00007
:1043200008D4E969B8060143E961E969014001205F
:10433000009101906D480168C90511D4016882158A
:1043400011430160FFF7EEFD009005E0FFF7EAFD85
:104350000099401A642870D864480068C005F5D5F3
:10436000A06801280AD0002801D0052810D0286AAA
:10437000400840002862286AB84301E0286A3043B8
:104380002862A068002812D0FFF7CCFD00900AE058
:10439000286A38432862F1E7FFF7C4FD0099411A03
:1043A0005348814249D8286A8007F5D50DE0FFF7C8
:1043B000B9FD009006E0FFF7B5FD0099411A4C48A1
:1043C00081423AD8286A8007F5D40198002804D0A1
:1043D000E969012000078143E9612078C00635D5ED
:1043E000606901280CD0401D686B23D03843686396
:1043F000686B400840006863FFF794FD064622E0C2
:10440000686B38436863686B30436863FFF78AFD05
:10441000064604E0FFF786FD801B02285BD8686B28
:104420008007F7D5686BF8218843A169C900084364
:1044300068630BE0B8436863F4E74CE0FFF772FD94
:10444000801B022847D8686B8007F7D4206A0028B1
:1044500046D069680907890F022943D0012636062C
:104460000228286805D0B0432860FFF75BFD0446AA
:1044700033E0B0432860FFF755FD074604E0FFF73F
:1044800051FDC01B022826D828688001F7D4E86AAD
:10449000E16A000900010843E862616AA06A084312
:1044A00069683D22120491430843686028683043DC
:1044B0002860FFF737FD044604E0FFF733FD001BDB
:1044C000022808D828688001F7D509E0FFF72AFDFF
:1044D000001B022801D90320FEBD28688001F5D405
:1044E0000020FEBD0120FEBD001002400070004013
:1044F00088130000F8B5040007D000262546403593
:10450000A662687F002802D005E00120F8BD2E7762
:10451000204600F04BF802236B77206801684022A8
:10452000914301600721E0680902884201D9002215
:1045300001E0012212030F273F02B84202D0884255
:1045400000D0A662276B002F05D1884201D92363D2
:1045500001E001202063A168606863690843216964
:10456000194308430123A1695B0219400843E1692B
:104570000843216A0843A16A084321680860616B07
:10458000606AA36908431B0C0427E1683B40194398
:1045900008432168104348602068C1697A0291434A
:1045A000C1612666012068770020F8BD10B586B08D
:1045B000044614216846FEF725FE1149206888420A
:1045C0001CD11048826981140A43826182690A40C1
:1045D0000592426949010A434261406908400590D9
:1045E000E02000900220019000210320039002911E
:1045F000049109206946C006FFF7E4FB06B010BD30
:104600000030014000100240FFB504460E464068ED
:10461000FF21254600270531403581B0884202D16F
:10462000A06800280CD0287F012815D00120287709
:10463000FFF778FC0090687F01280FD0022789E0FF
:104640000420687704980090324611462046039B68
:1046500000F03EF905B0F0BD0220FBE7002E78D057
:104660000398002875D0042068770020206626640F
:104670000399A9800399E980A063A087E087E0649B
:10468000206507200121E2680002090382422268B6
:10469000536801D98B4300E00B4353600122A168AA
:1046A000D203914205D121680A6801239B039A43F2
:1046B0000A6021680A68520603D40A6840231A4334
:1046C0000A60E168814218D934E020688168C9072E
:1046D00006D0007B3070E888401EE880761C0CE035
:1046E0000498002824D0401C07D0FFF71BFC01468B
:1046F0000098091A049881421AD2E8880028E4D167
:104700001BE020688168C90706D0C0683080E8884F
:10471000401EE880B61C0DE00498002808D0401C1C
:1047200008D0FFF7FFFB0099411A0498814201D39A
:1047300003270FE0E8880028E3D12046009A049977
:1047400001F0CCF9002801D020202066206E00283E
:1047500000D001270120687700202877384679E7C4
:10476000FFB5064604464036307F002781B00D462F
:10477000012809D001203077FFF7D4FB0090707F2B
:10478000012804D002279DE0022005B0F0BD002DD5
:1047900072D0039800286FD0032070770020206625
:1047A000A5630399A1870399E1872064B080F08015
:1047B0002065E0640121A068C903884205D1206812
:1047C00001680122920311430160206801684906D3
:1047D00003D401684022114301600720E168000210
:1047E0008142606823D9002802D0E08F01281AD1C5
:1047F00021682888C86005E020688168890706D597
:104800002988C160E08F401EE087AD1C0BE0049852
:1048100000283ED0401C06D0FFF784FB0099411AC7
:104820000498814235D2E08F0028E5D136E0002897
:1048300002D0E08F01282ED1E08F012803D9216812
:104840002888C8600CE02168287808730FE0206889
:104850008168890711D5E18F012906D92988C160AE
:10486000E08F801EE087AD1C15E029780173E08F92
:10487000401EE0876D1C0EE023E00498002808D05D
:10488000401C08D0FFF74EFB0099411A0498814262
:1048900001D3032716E0E08F0028D8D12046009AE4
:1048A000049901F057F9002801D020202066A06863
:1048B000002803D12068C16880680090206E00281D
:1048C00000D00127012070770020307738465CE760
:1048D000FFB5044683B00120254640350090287F6F
:1048E00000270E4601280FD001202877FFF71AFB7A
:1048F0000190687F616801280DD0CA1FFD3A08D178
:10490000A168002905D102E0022007B0F0BD04280B
:1049100001D00227FAE0002E7CD005980028FBD0B9
:1049200006980028F8D0687F042801D00520687711
:1049300000202066059921640699E9800699A980DE
:10494000A6630699E1870699A187E064206507239D
:10495000E1681B02994202D8E888012806D920683C
:104960004268012109038A43426005E020684168EA
:10497000012212031143416020680168490603D4F3
:104980000168402211430160E1686068994242D9A0
:10499000002802D0E08F012835D121683088C86016
:1049A000E08F401EE087B61C2DE0009800280ED056
:1049B000E08F00280BD020688168890707D53188EF
:1049C000C160E08F401EE0870020B61C0090E888A0
:1049D00000280ED020688168C9070AD0C0680599F0
:1049E00008800598801C0590E888401EE88001201A
:1049F00000900C98401C06D0FFF794FA0199411AD8
:104A00000C9881426DD2E08F0028CED1E888002832
:104A1000CBD16EE079E0002802D0E08F012862D18E
:104A2000E08F012807D921683088C860E08F801E98
:104A3000E087B61C57E0216830780873E08F401E8D
:104A4000E087761C4FE00098002818D0E08F0028FF
:104A500015D020688168890711D5E18F012906D911
:104A60003188C160E08F801EE087B61C05E0317898
:104A70000173E08F401EE087761C00200090E888DC
:104A8000002824D020688168C90720D0E98801293E
:104A900012D9C068059908800598801C0590E8889F
:104AA000801EE880E88801280FD82068416801222C
:104AB00012031143416008E0017B059801700598DD
:104AC000401C0590E888401EE880012000900C986A
:104AD000401C08D0FFF726FA0199401A0C99884229
:104AE00001D3032712E0E08F0028ACD1E88800282A
:104AF000A9D12046019A0C9901F02CF8002801D088
:104B000020202066206E002800D001270120687731
:104B1000002028773846F8E6094910B5401E88423B
:104B200001D9012010BD074C60610321081F00F06E
:104B300065FD0020A06107202061002010BD00005D
:104B4000FFFFFF0000E000E070B502462032137F57
:104B5000012B1BD001231377022454770468656866
:104B60007026B5436560046865680E683543656006
:104B70000468A5688026B543A56000688468496814
:104B80000C43846053770020107770BD022070BD05
:104B900010B586B0044614216846FEF733FB0D4974
:104BA0002068884214D10C48426909130A434261C3
:104BB00040690840059020200090022001900020CC
:104BC000029003900120049069460448FFF7FAF828
:104BD00006B010BD00040040001002400004004870
:104BE000F8B5064604462036307F0D4601280DD024
:104BF00001203077022070770427002A08D0042A89
:104C000016D0082A2AD00C2A4DD137E00220F8BD50
:104C1000206801F043F9206881690822114381610D
:104C200020688169B9438161206881692A6912E03D
:104C3000206801F077F9206882690121C9020A43DE
:104C4000826120688169012292029143816120681A
:104C500081692A6912021143816124E0206801F010
:104C6000A1F92068C26908210A43C2612068C169AC
:104C7000B943C1612068C1692A6912E0206801F066
:104C8000D3F92068C1690122D2021143C1612068B1
:104C9000C269012189028A43C2612068C1692A6907
:104CA00012021143C1610120707700203077F8BDF6
:104CB00070B5040005D025462035687F002802D055
:104CC00006E0012070BD00202877204600F00AF899
:104CD00002206877211D206801F090F80120687794
:104CE000002070BD08B500680549884207D1054815
:104CF000C26902210A43C261C0690840009008BD30
:104D0000000400400010024010B504460068012273
:104D100001F0B8F80C482168814208D00B48814264
:104D200005D00B48814202D00A48814204D1486C28
:104D30000122D20310434864206801680122114314
:104D40000160002010BD0000002C01400040014027
:104D5000004401400048014070470000F8B5036876
:104D60000446D96918680D072D0F07D18A0605D5A5
:104D7000820603D5204601F091FAF8BD9A68002D0D
:104D800064D0D507ED0FFF26213606402E435DD0B7
:104D9000CE0706D0C60504D501261E62E36E334356
:104DA000E3668F0702230426002F06DAD70704D014
:104DB00027683B62E76E3743E7664F0706D5D207A1
:104DC00004D022681662E26E1A43E2660A0709D529
:104DD000202202402A4305D0236808221A62E36E8B
:104DE0001343E366E26E002AC7D0890604D5800625
:104DF00002D5204601F052FAE06E000703D4206885
:104E0000806840061CD5204601F023FA206881689E
:104E1000490611D58168402291438160606E002867
:104E20000AD012494163606EFEF7F8FE0028A4D054
:104E3000606E416B8847F8BD2046FFF78DFFF8BDD7
:104E40002046FFF789FF0020E066F8BD0A0605D579
:104E5000020603D5204601F0F7FAF8BD4906FCD555
:104E60004006FAD5204601F003FAF8BD716100084A
:104E700070B5040005D025466035687A002802D058
:104E800006E0012070BD00202872204600F026F8C0
:104E900024206872206801684908490001602046A2
:104EA00001F03AFA0128EDD0606A002802D02046CD
:104EB00001F0F0F8206841680122D202914341607C
:104EC000206881680822914381602068016801227E
:104ED00011430160204601F042F970BDF0B587B082
:104EE000064614216846FEF78DF92A493068884243
:104EF0004ED12948C269012149040A43C261C269ED
:104F00000A40059242690A4342614069084005909F
:104F10000C200090022001900121032003900291B7
:104F2000049109206946C006FEF74CFF1B481C4D42
:104F3000002411C52C60AC608027EC606F602020DD
:104F40006C6128611648083DFEF7DAFE002801D0A2
:104F5000FEF77EFB75666E621048124D14382860AD
:104F60001020291D91C12C616C61AC612846EC6157
:104F7000FEF7C6FE002801D0FEF76AFB3566002268
:104F800003211C206E62FFF71FF81C20FFF712F8A8
:104F900007B0F0BD0044004000100240580002403D
:104FA00068030020AC030020F8B5054604466035D0
:104FB000A87A202841D100290BD0002A09D001234A
:104FC000A0681B03984206D12069002803D1C807B6
:104FD00001D00120F8BD287A01282ED001202872A6
:104FE0005820616502530026E6662220A872616E91
:104FF00013488862616E1348C862616E1248086384
:10500000606E13464663676D21683A462431606ED0
:10501000FEF7A2FE2E7220680168FF2201321143C2
:1050200001602068816801221143816020688168E5
:105030004022114381600020F8BD0220F8BD00002D
:10504000CF6100080F620008856100087047704753
:10505000FFB5064604466036707A83B00D462028B8
:1050600058D1002D0CD00598002809D00120A16846
:105070000003814207D12069002804D1E80702D04B
:10508000012007B0F0BD307A012843D001203072F2
:105090000020E06621207072FEF744FF0190274651
:1050A0004037059838820598788218E0788A401E43
:1050B000788206980090002280212046019B01F012
:1050C000F6F9002818D10120A1680003814202D11D
:1050D0002069002812D02168287808856D1C788AFC
:1050E0000028E3D106980090002240212046019B31
:1050F00001F0DDF9002808D00320C2E728882168E4
:10510000C005C00D0885AD1CE9E7202070720020A5
:105110003072B6E70220B4E7F8B5054604466035BC
:10512000687A20283BD100290BD0002A09D001231E
:10513000A0681B03984206D12069002803D1C80744
:1051400001D00120F8BD287A012828D0012028723A
:1051500020464030E164028242820026E666212039
:105160006872216E0F488862216E0F48C862216EF6
:105170000E480863206E134646632768E16C3A4682
:105180002832206EFEF7E8FD2168402008622E726A
:10519000206881688022114381600020F8BD0220D0
:1051A000F8BD000019620008496200088561000826
:1051B00070477047FEE70000F8B5254D0F46002602
:1051C000012280212846FEF7A6FE002001F0ACFF58
:1051D0008024012240212846FEF79DFE0A2001F08E
:1051E0002DFE80212846FEF791FE002800D02643A0
:1051F000002240212846FEF78EFE022001F01EFE0E
:105200006408E6D1012001F08FFF002F1ED001229B
:1052100080212846FEF77FFE022001F00FFE0122CA
:1052200040212846FEF777FE052001F007FE002208
:1052300040212846FEF76FFE012280212846FEF716
:105240006AFE0A2001F0FAFD3046F8BD0022DFE7D1
:105250000014004810B5114C012280212046FEF7B1
:105260005AFE022001F0EAFD012240212046FEF70D
:1052700052FE022001F0E2FD002280212046FEF7CE
:105280004AFE052001F0DAFD002240212046FEF70B
:1052900042FE052001F0D2FD10BD000000140048C0
:1052A00010B5114C002240212046FEF734FE0220AA
:1052B00001F0C4FD002280212046FEF72CFE0220D2
:1052C00001F0BCFD012240212046FEF724FE05200E
:1052D00001F0B4FD012280212046FEF71CFE0520CE
:1052E00001F0ACFD10BD000000140048F8B5002529
:1052F000254E0F4680243C4201D1002200E00122CD
:1053000080213046FEF707FE022001F097FD0122C2
:1053100040213046FEF7FFFD052001F08FFD002201
:1053200040213046FEF7F7FD012001F087FD6408BB
:10533000E1D1012280213046FEF7EDFD012240211E
:105340003046FEF7E8FD002001F0EEFE0A2001F0F5
:1053500075FD80213046FEF7D9FD01000B4803D0D2
:1053600002210170012501E003210170002240218A
:105370003046FEF7D0FD012001F0D6FE0A2001F0F4
:105380005DFD2846F8BD000000140048B50100206E
:105390003EB5002419491A4800940194029412C0A1
:1053A00004604460012504618560446185610421D5
:1053B000C461C160FF210246C231203232C2C462E0
:1053C0000838FEF793FA2803019007200290009511
:1053D00069460B48FEF796F9082000906946084890
:1053E000FEF790F90920009069460548FEF78AF912
:1053F000694603480094FEF785F93EBD002401404C
:10540000C4010020F0B587B014216846FDF7FAFE0C
:105410003A484269012189050A43426142690A40CA
:105420000592426949110A43426142690A40059264
:10543000426949000A4342614069C125084005901C
:105440002D01092001222946C006FEF764FD012234
:10545000C0212B48FEF75FFD0220009003260024A8
:105460000920694601960294C006FEF7ABFC009540
:105470000125092002946946C00601950394FEF7B0
:10548000A1FC204F00966946384601960294FEF72B
:1054900099FCC0201126009002946946019603945D
:1054A0001748FEF78FFC082000900194694602948B
:1054B0003846FEF787FCA8036A4631C2694638467B
:1054C000FEF780FCE8036A4631C269463846FEF7BB
:1054D00079FC28026A4631C209206946C006FEF7F7
:1054E00071FC6802009009200294694601960394B9
:1054F000C006FEF767FC07B0F0BD000000100240D8
:10550000001400480004004810B50F480D49016020
:10551000FF210531416000210722816012020161F3
:10552000C26001224161520282610162416208222D
:1055300081620723C261C36242630163FEF7DAFF3F
:1055400010BD0000003001401002002010B58AB0EC
:10555000002407941C2168460894FDF753FE134865
:105560001149016013218460416011490461C160E7
:1055700080218161FFF79CFB079407A90B480894E1
:10558000FFF7E2FA60200090FF20913001900220A6
:1055900002900422694604940448FFF721FB034863
:1055A000FFF7F6FA0AB010BD0004004074020020B4
:1055B0005F09000010B50A480849016009490C223A
:1055C0000968416000218160C16001618161C16140
:1055D000016242614162FFF74BFC10BD0044004094
:1055E000B4020020900100204178491CC9B24170EA
:1055F000042901D100214170704770478307FF22C1
:10560000DB0E9A408907090E994000280BDA000743
:10561000000F0838830808489B001818C369934393
:105620000B43C3617047830804489B001B1818682C
:10563000904308431860704700ED00E000E400E08C
:1056400010B5CA78002A08D0012A05D0022A21D034
:10565000032A01D100F0C0F810BD0846097931399C
:105660000B0000F086FF0605080B0E101404F3E78C
:1056700002F052FC10BD02F081FC10BD02F094FB60
:1056800010BD342100E0352102F0CAFC10BD02F04B
:10569000DDFB10BD00F042F810BD00000E4A10B551
:1056A0000021904202D9F920C04310BDFF22FE32F2
:1056B000904202D24B20000110BD084A084B4C001A
:1056C000145B844202D8FA3908B210BD491C89B271
:1056D0009942F4D310BD00006E0F00003888000816
:1056E000AB05000010B50B480188002911D000213E
:1056F00001806422811A084801F0CAFC0549643916
:105700000846703001F09AFE024864216438FDF7C3
:1057100079FD10BDA8150020B402002010B50A794B
:10572000213A130000F025FF07050A1B24272A2C25
:1057300009000146144802F005FA10BD13484A79E1
:1057400002708A79C9790902511841801048418054
:105750000021C1808180018002F0A4F910BD0B48B6
:10576000001F02F0BFF9094901200839887010BDF7
:1057700002F03CFA10BD02F063FA10BD00F0CCFA62
:1057800002F088FA10BD00001C1600208C010020D9
:10579000E215002010B50C4903680C4A8B4202D078
:1057A000934200D10A480368DC69E443E40609D463
:1057B00010241C620068884204D0904202D105493E
:1057C0000120088010BD0000003801400044004066
:1057D000B4020020A815002010B50B798A78252B7B
:1057E000921CFFF799FC10BDF0B50023FF261C4664
:1057F00032360FE0055D6B4008251F0602D55B00C1
:10580000734000E05B006D1E2D06DBB22D0EF4D15F
:10581000641CE4B28C42EDD3934201D00220F0BD6F
:105820000020F0BDFFB581B00A9F1E4605463946EF
:1058300000F046F82148012F3A4606D00189284653
:1058400000F0FEF804001CD034E0C188284600F0C7
:10585000F7F804460A2002F051FD002C2AD13B46FD
:105860006A461421284600F0B9F8040022D168469F
:1058700001880298081A7D2180B2C9004843039923
:1058800015E03B466A460121284600F0A7F80400CF
:1058900010D168460A210088FDF760FC1921C90172
:1058A0003080884200D90020FA2148436421FDF766
:1058B00055FC3080204605B0F0BD0000A40100205A
:1058C00077220E4812020E4B01290BD0022908D173
:1058D000C121C180002101814281FE2181813120CD
:1058E0001870704701210903C18006490181012117
:1058F0004281490381814020F2E70000A401002099
:10590000B201002010100000F7B582B00D46144619
:1059100011460298FFF7D4FF2E4E2F4F012C02D0D4
:10592000022C33D04FE00298FFF794FC307839789E
:1059300040000843C1B20298FFF7D8FC0646002198
:105940000298FFF739FC6946087000210298FFF7BA
:1059500033FC6946487000210298FFF72DFC04468D
:105960000298FFF79DFC224602216846FFF73CFFA4
:105970000446344303D16846008840BA2880298809
:105980007D20000281421ED228801CE00298FFF791
:1059900061FC3078397840000843C1B20298FFF7C3
:1059A000A5FC044600210298FFF706FC6946087032
:1059B00001210298FFF700FC694648700298FFF742
:1059C0006FFC002C02D0204605B0F0BD6846008870
:1059D00040BAD9E7B2010020B4010020FFB581B080
:1059E0001E4617460C4609E0324639460198FFF735
:1059F0008BFF050007D00A2002F080FC2046641EC1
:105A0000E4B20028F0D1284605B0F0BD70B50C46D0
:105A10000546FFF755FF04482246C188284600F096
:105A20000FF8002070BD0000A40100200A4610B548
:105A30000249898900F004F810BD0000A40100208B
:105A4000F8B50C46164605461146FFF739FF204FBC
:105A5000012E02D0022E19D037E02846FFF7FAFBBC
:105A60001C481D490078097840000843C1B2284607
:105A7000FFF73CFC0646210A2846FFF737FC304377
:105A800011E0022D1ED0032D1ED01EE02846FFF788
:105A9000E1FB104810490078097840000843C1B282
:105AA0002846FFF723FC0646E1B22846FFF71EFC16
:105AB00006432846FFF7F4FB002E06D1012DE0D166
:105AC0003C8002E07C8000E0BC803046F8BD0000F5
:105AD000A4010020B2010020B3010020F7B5044664
:105AE0004068FF26053682B01546B0420CD1012130
:105AF000A068C903884202D04911884204D12068B5
:105B000001684022914301600095002280212046D7
:105B1000039B00F090F82027002813D16068B04262
:105B200016D1A068B902884202D0491188420FD12B
:105B300003210095002249022046039B00F030F823
:105B4000002805D0206E38432066032005B0F0BD44
:105B50000020FBE7F8B50F460B46154600920321DF
:105B600004460022C90200F01BF82026002812D1AA
:105B70003B46002280212046009500F05CF800287A
:105B800009D103213B46002249022046009500F03E
:105B900007F8002803D0206E304320660320F8BDAC
:105BA000F8B51D4617460E4604463DE0032149025E
:105BB0008E4205D1002F03D1017B68460170007829
:105BC000681C31D0002D05D0FEF7ACF90699401ABB
:105BD000A84229D320684168E0229143416060686F
:105BE000C11FFD390CD10121A068C903884202D030
:105BF0004911884204D12068016840229143016024
:105C00000120A16A4003814207D121680A688243CA
:105C10000A6021680A6802430A6001204034607704
:105C2000002020770320F8BD206881683140B94208
:105C3000BCD10020F8BDF8B51D4617460E460446F7
:105C400033E0681C31D0002D05D0FEF76BF90699C2
:105C5000401AA84229D320684168E022914341605C
:105C60006068C11FFD390CD10121A068C9038842B9
:105C700002D04911884204D1206801684022914332
:105C800001600120A16A4003814207D121680A68AE
:105C900082430A6021680A6802430A600120403496
:105CA0006077002020770320F8BD206881683046A7
:105CB000884304D00020B842C3D10020F8BD0120A1
:105CC000F9E77047F7B544788EB0174606460025C9
:105CD00034216846FDF796FAE00080190079002823
:105CE00003D0641C042C11D011E0E10001208C19B8
:105CF00020713A46A0680F99FDF76BFA3A4668465C
:105D00000F99FDF766FAA06811B0F0BD00246D1C74
:105D1000042DDDDBF8E70000BFF34F8F0449034893
:105D2000C860BFF34F8F00BFFDE700000400FA0515
:105D300000ED00E0642001F05DFBFBE710B5FEF72D
:105D4000F7F802F09FFB012801D002F061FB10BDC3
:105D500030B591B030216846FDF754FA0024122086
:105D60000F94009001200D940390059010200E9444
:105D7000049006900520C00402250A900C94089512
:105D800009940B946846FEF70BFA07200C900E94CA
:105D900001210D950F940CA8FEF71AF911B030BD32
:105DA000134801680122114301604168114A114002
:105DB00041600168104A11400160016801229204AB
:105DC0009143016041683F22120491434160C16ADE
:105DD00009090901C162016BFF2214329143016379
:105DE000416B490849004163002181607047000010
:105DF000001002400CB8FF08FFFFF6FEF0B5026885
:105E00001A4B1B4C984201D0A04203D17025AA43E3
:105E10004D682A43174D184E184F98420AD0A04299
:105E200008D0174CA04205D0A84203D0B04201D000
:105E3000B84205D11446032212029443CA68224391
:105E40008024A2434C69224302608A68C2620A68C5
:105E50008262984205D0A84203D0B04201D0B84235
:105E600001D10969016301214161F0BD002C0140AC
:105E7000000400400040014000440140004801404F
:105E80000020004010B50123046A8B409C4304624B
:105E9000036A8A401343036210BD0000F0B5026A32
:105EA000520852000262056A436882697024A24364
:105EB00092080C6892001443022295438A68164E99
:105EC0002A43144DA84207D0B04205D0134FB84220
:105ED00002D0134FB84206D10827BA43CF68174300
:105EE000042297433A46A84207D0B04205D00B4D52
:105EF000A84202D00A4DA84206D103252D02AB4389
:105F00004D691D438B692B4343608461496841633C
:105F10000262F0BD002C01400040014000440140FD
:105F20000048014070B5026A10239A430262056A74
:105F30004268836973242402A3430C6824021C432F
:105F400020239D438B681B012B43124DA84208D18F
:105F50001D46CB688026B5431B012B434025AB4330
:105F600008E00D4DA84205D00C4DA84202D00C4DC2
:105F7000A84208D10325AD02AA434D69AD001543DF
:105F80008A6992002A43426084614968816303629E
:105F900070BD0000002C0140004001400044014061
:105FA0000048014070B5026AFF2301339A43026240
:105FB000056A4368C2697024A24392080C68920083
:105FC00014430122520295438A6812022A43124D59
:105FD000A84208D11546CA68C614B54312022A431E
:105FE0000515AA4308E00D4DA84205D00C4DA84266
:105FF00002D00C4DA84208D103252D03AB434D69B7
:106000002D011D438B691B012B434360C46149680B
:10601000C163026270BD0000002C014000400140DD
:10602000004401400048014030B5026A01231B03CF
:106030009A430262046A4268C36973252D02AB4326
:106040000D682D021D4301235B039C438B681B03DA
:1060500023430C4CA04208D00B4CA04205D00B4C63
:10606000A04202D00A4CA04205D10124A403A243BD
:106070004C69A40122434260C5614968016403621E
:1060800030BD0000002C01400040014000440140B0
:106090000048014010B5818CC90707D001684A68E3
:1060A00001235B049A43836A1A434A60818C8907FF
:1060B00007D501684A6801231B049A43C36A1A433F
:1060C0004A60818C490707D501684A6801239B040F
:1060D0009A43036B1A434A60818C090707D501680C
:1060E0004A680123DB039A43436B1A434A60818C5D
:1060F000C90607D50268916801231B039943836B86
:1061000019439160818C890607D501688A6801234B
:106110005B039A43C36B1A438A60818C490612D58C
:1061200003685A6801210905046C8A4322435A60B6
:10613000026C8A4207D10268516803235B059943C8
:10614000436C19435160818C090607D501684A6880
:106150000123DB04806C9A4302434A6010BD002196
:10616000C166202260304272827201720846704716
:1061700010B5406A0022014640314A834A82FEF748
:10618000EBFD10BD70B5446A25466035687A00267F
:10619000212808D120688068000604D552200653C3
:1061A000204600F072F8A87A222808D1206880687A
:1061B000400604D55A200653204600F04AF8E06E07
:1061C00010210843E0662046FEF7C6FD70BD10B5FD
:1061D00001460968406A0968890615D400225A21D7
:1061E0000A5201680A68FF2301339A430A60016872
:1061F0008A68520852008A6001688A6840239A437C
:106200008A6020226A210A54FEF720FF10BD10B5D3
:10621000406AFEF71CFF10BD10B501460968406AD0
:10622000096889060DD4002252210A5201688A6841
:1062300080239A438A60006801684022114301600C
:1062400010BDFEF7B5FF10BD10B5406AFEF7B1FFF7
:1062500010BD01680A68FF2321339A430A60016870
:106260008A68520852008A6020216030817270472B
:1062700010B501680A6840239A430A602022692108
:106280000A54FEF795FF002010BD01680A68C0237C
:106290009A430A60202160304172704770B502460F
:1062A000403203466033948B9D7A0168222D05D0DD
:1062B0008869082210438861022070BD898C0126FC
:1062C00085683603B54202D10569002D0BD0214007
:1062D000446D651C45652170518B491E0904090CEC
:1062E000518307D015E0456D21402980416D891CFF
:1062F0004165F1E701680A68FF242134A2430A607E
:1063000001688A68520852008A6020219972FEF75B
:106310009DFE002070BD0000F8B504462369A26808
:10632000E5691A43636910202B43002125681A434D
:106330002B680E463E4F3B4013432B6023685A6840
:1063400003252D03AA43E5682A435A60236AA269FC
:1063500025681A43AB680B273F02BB431343AB606E
:10636000344A2568954210D1334A126B9207920F36
:106370000ED0012A05D0022A05D0032A09D1022015
:1063800007E0042005E0082003E02C4A954200D1F4
:1063900000200122E369D203934224D100280CD0CB
:1063A00002280DD0042813D0082817D001260A0986
:1063B00012010807400F10432FE0FDF7A5FE09E08A
:1063C00061681F4A48088018FCF7C8FE81B2EEE7F2
:1063D000FDF7AAFE616840004A08F4E761680122FF
:1063E00048081204EFE7002808D0022809D0042842
:1063F0000BD0082814D001263046F8BDFDF784FEE6
:1064000005E061680F4A48080CE0FDF78DFE616801
:106410004A088018FCF7A2FE80B22168C860EBE74A
:10642000616848088018FCF799FE80B2E860E3E7ED
:10643000F369FFFF003801400010024000440040B3
:106440000024F40000127A006921095C212901D09E
:106450000220704702464032518A002912D001239F
:1064600081681B03994202D10169002915D0C16CD2
:106470004B1CC364006809780185508A401E508215
:106480000020704701680A6880239A430A60006808
:106490000168402211430160F2E7C16C036809887A
:1064A000C905C90D1985C16C891CC164E5E7FFB533
:1064B00081B017460E4604460A9D1DE0681C1BD09D
:1064C000002D05D0FDF72EFD0499401AA84213D9DE
:1064D00020680168FF22A132914301602068816831
:1064E000490849008160202060346072A072002059
:1064F0002072032005B0F0BD2068C1693046884392
:1065000004D00020B842D9D00020F3E70120F9E7F9
:1065100010B50348FEF722FC0148FFF73BF910BD18
:10652000B40200200FB410B503A9044B044A02982A
:1065300000F0E2F810BC08BC04B018472170000855
:10654000B80100202021020C01D010211046020ABF
:1065500001D010460839020901D01046091F8208EF
:1065600001D01046891E420801D0881E7047081AC3
:10657000704730B47446641E2578641CAB4200D268
:106580001D46635D5B00E31830BC184702E008C895
:10659000121F08C1002AFAD170477047002001E09D
:1065A00001C1121F002AFBD170470000FFB504464D
:1065B000002083B00E461F46054601901BE00220D6
:1065C0000090002211463046059BFFF72BF900286A
:1065D00020D00198401CC0B20190142802D31A495F
:1065E0000120087002213046FFF710FA0A2001F05E
:1065F00085FE6D1CEDB2BD42E1D3BD4213D3032E27
:106600000CD06079022E0CD002210843607100206A
:1066100007B0F0BD0C4800210170EEE76079012160
:10662000F3E70421F1E7032E07D06079022E08D0AA
:10663000FD21084060710120EAE7607940084000D0
:10664000F8E7FB21F5E7000085010020FFB50446CF
:1066500083B000200D460D9F0646019043E00120C7
:10666000009028460C9B069A0599FFF7DBF8002856
:106670001CD00198401CC0B20190142802D31C49C0
:10668000012008701B498888401C80B28880C82877
:1066900027D97D21C9001748032D81801CD060793E
:1066A000022D1CD00221084360711EE01149002018
:1066B00088800F49032D087008D06079022D09D019
:1066C000FD2108406071012007B0F0BD60794008ED
:1066D0004000F7E7FB21F4E760790121E3E70421BB
:1066E000E1E7761CF6B2BE42B9D30020ECE7000029
:1066F0008501002070010020FFB591B00F460546CE
:10670000002606E025280AD0149A139990476D1C9C
:10671000761C28780028F5D1304615B0F0BD00244D
:1067200000940121F34A029400E004436D1C2B788D
:106730000846203B98401042F7D128782A280ED0EE
:10674000022128780246303A092A15D8009A0A23ED
:106750005A43303A80180C436D1C0090F1E701CF8A
:106760000090002805DA01204003044300984042CD
:106770000090022004436D1C28782E2815D1042097
:10678000044368786D1C2A280AD101CF6D1C029041
:106790000BE002990A225143303940186D1C0290D7
:1067A0002878014630390929F3D928786C2810D087
:1067B00006DC4C281AD068280ED06A2817D104E0CD
:1067C000742813D07A2812D110E001204005044328
:1067D0000CE00121090501E0032109050C4369785A
:1067E000814203D10120000524186D1C6D1C2878FE
:1067F00003906E281ED00CDC632831D004DC002806
:106800008AD0582811D1B2E064287BD069280CD1F5
:1068100078E073282DD004DC6F2870D0702804D164
:10682000A7E075286CD078286BD0149A13999047FC
:10683000761C62E06002400F022807D003280AD0CD
:10684000042838680AD006603F1D56E03868F11702
:1068500006604160F8E738680680F5E70670F3E700
:106860003878694608740020487404A80390012011
:1068700003E0386803900020C0433F1D61070FD537
:10688000002101E00199491C029A0191914213DA19
:106890008142F7DB019A0399895C0029F2D10BE070
:1068A000002101E00199491C01918142FADB019A22
:1068B0000399895C0029F5D101990098139A401A2F
:1068C00000902146149B00F03BF90199801946186D
:1068D00007E0039803990078491C0391149A1399CF
:1068E00090470198401E0190401CF2D12146149B14
:1068F000139A009800F014F986196D1C09E741E01D
:1069000033E034E00A200021049005916002410F39
:10691000022905D001CFC2179446032905D007E00C
:10692000FF1DFF08FF0003CF06E000B2C217944628
:10693000042902D140B2C1178C4600226146944519
:1069400006DA0A460021404291418C462D2102E0A0
:10695000210504D52B216A461176012103E0E107C8
:1069600001D02021F7E7019154E00A200BE010202C
:1069700009E0102004900021042004430820059120
:10698000029003E008200021059104906002410F6D
:10699000022905D001CF00229446032906D006E043
:1069A000FF1DFF08FF0003CF8C4603E080B20429DF
:1069B00000D1C0B20021019121072BD50399702984
:1069C00006D0049A1021059B4A401A4305D00EE0D8
:1069D00040216A461176012108E06146014306D054
:1069E00030216A4611760399517602210191049A69
:1069F0000821059B4A401A430CD16146014301D14D
:106A0000610707D530216A4611760121019102996B
:106A1000491E02910399582904D037A103910FA967
:106A20000F910DE039A1F9E76146059B049AFCF747
:106A300091FC039B8C469B5C0F9A521E0F92137025
:106A400061460143F0D10F9807A9081A203003903E
:106A5000600704D5012000048443029801E001206E
:106A600002900399884201DD401A00E0002041189D
:106A70000290019809180098401A0090E00306D48B
:106A80002146149B139A009800F05AF886190020AA
:106A9000049008E006A9085C149A1399904704989A
:106AA000401C761C049001998842F3DBE0030CD56E
:106AB0002146149B139A009800F042F8861904E0CE
:106AC000149A302013999047761C0299481E029020
:106AD0000029F5DC08E00F980F990078491C0F9108
:106AE000149A13999047761C0399481E0390002925
:106AF000F1DCFBE60928010030313233343536371A
:106B000038396162636465660000000030313233F9
:106B10003435363738394142434445460000000099
:106B2000F8B5044600251E461746880404D405E03F
:106B300039462020B0476D1C641EF9D52846F8BDA3
:106B4000FFB50446002581B01E46C80301D5302795
:106B500000E02027880404D505E038460399B047B3
:106B60006D1C641EF9D5284605B0F0BD10B509208E
:106B700001221021C006FDF7CEF901F089FA0020AC
:106B800001F0DAFA042000F087FB012001F0D4FACA
:106B900001F0DFFA0D480E4900680024884208D150
:106BA000002001F0C9FA502000F076FB012001F02E
:106BB000C3FA002001F0C0FA012000F06DFB20466E
:106BC00000F06AFB012001F0B7FA10BD3C1600206E
:106BD0004125BF0008B5684600F052FB68460078C2
:106BE00008BDF0B58E46002819D001244B1E14E0D4
:106BF000714600220D1B6D1E0BE0560031188C46AD
:106C0000875B49888F4202D9815361464F80521C6D
:106C100092B29542F1DA641CA4B29C42E8DDF0BD68
:106C2000034610B50020024603E054001C5F201804
:106C3000521C8A42F9DBFCF7A7FA00B210BD30B54E
:106C400008E04B001D18403D3E242C5FC452002C30
:106C500000D1C252491E0029F3DC028030BDF8B5D4
:106C600014460D461E4607462146069AFFF7E7FFE3
:106C7000002003E041007A5A6A52401CA042F9DB2E
:106C800021462846FFF7ADFF7000211A281D891EF6
:106C9000FFF7C6FFF8BD000001F06AFA0A2001F014
:106CA0002DFB344E344C354DFEF71CFD2778132F49
:106CB00053D333487D234188DB00994207D20289B0
:106CC0002D204001824202D92D49088119E02D482A
:106CD00081420FD2C81AC100081A1946FCF754FAAB
:106CE00018213E304843264960610989814201DD0F
:106CF0002349088122484B21028949018A4200D94F
:106D0000018128882049884200D23080A87AB0705A
:106D1000687AF070E888FCF7F1FA1C4A1C4BFCF723
:106D200085FAFCF7F9FAB080154839460089F080F9
:106D3000A88930812069FCF711FA28800020207092
:106D40002061A17800290ED0491CC9B2A170052983
:106D500009D1A070FEF72EFC05E0688821697F1C30
:106D600040182061277000F0C1FF192001F0C6FA19
:106D70009AE700001C160020840100200E16002057
:106D8000E2150020581B00001027000006819543E3
:106D90008B6CD73F70B5034600200246084D09E0D2
:106DA000040A0006060C985C60404000285A7040B7
:106DB000521CD2B20C46491E89B2002CF0D170BDD3
:106DC000388600081CB5002402200090234680224B
:106DD0000BA101940E4801F02DFB0320009000232D
:106DE00080220CA101940E4801F024FB04200090A5
:106DF000002380220BA101940F4801F01BFB1CBD56
:106E000073616D706C696E67207461736B00000054
:106E1000357A0008636F6D6D207461736B0000003C
:106E2000996C0008666C6F7720636F6E74726F6C7C
:106E3000207461736B000000996E000804E000216B
:106E4000491CC9B20529FBD30146401E80B2002966
:106E5000F5D1704770B50D4904460D884888E0802B
:106E60008888CE880A4948431B210903FCF776F934
:106E7000A0720848192170438903FCF76FF960720A
:106E80002846FEF70BFCA08170BD0000C400002066
:106E90005F100000C8190000244C00206080E080D2
:106EA0002080A080208100F06FF9204618210A3050
:106EB000FCF7A8F91E48006800F0CCFC27460A370A
:106EC0007D25ED00E188608800F04CF8388886B2B6
:106ED00026816088A84205D22D2149018E4201D920
:106EE000218117E0134988420ED22946401AC20078
:106EF000101AFCF749F918213E3048430C4934393F
:106F00000863864200DD208121894B2040018142B7
:106F100000D920810820205E00F0A2F9034800F08B
:106F20000BF8642001F0EAF9CCE70000E21500203C
:106F300060010020581B00001FB50446002001908E
:106F40000290064903900220085E0090012305226A
:106F500001A90348FFF783FEE0801FBD0E16002045
:106F6000D8150020F8B52B4C002816D0002916D0D3
:106F7000411A294FE1607869814200DDE060E168F3
:106F80004042814200DAE060E568A0684019A060F4
:106F9000B969884204DC014603E000202060F8BDA6
:106FA000A160F869814200DAA060396A2846484346
:106FB0006421FCF7E9F8FF21E1310646884200DA56
:106FC0000E461549A068496A48436421FCF7DCF87D
:106FD0008719266961697000281A40180E49896A64
:106FE00048436421FCF7D0F80C49C019884201DD00
:106FF0000949C8624B214901884200D820602268B3
:107000008A4200DD21608842C9DC20686661256112
:107010006060F8BDEC1500202C01002088130000F2
:1070200013B5044B012269460348FEF711F8009896
:107030001CBD0000FFFF0000B402002010B50028B6
:1070400023D0124B0022001F196803E0814203D8AD
:107050000A4649680029F9D1002A0AD01368841A1F
:107060009C4204D1006818181060104602E050607D
:1070700000E01860002907D002680B1A934203D180
:107080000B68D21802604968416010BDBC01002045
:10709000F0B5224D8E46A8420CD1214E331D1C1D49
:1070A000B11C2046D03884461E48006840686425DC
:1070B000281AB06018682568A8420ED2281A0880DD
:1070C000186806E01A686146851A095C72465155CF
:1070D000401C21688142F5D81DE0401B101A088031
:1070E000186816E090420DD1002507E061464E5D1C
:1070F0001968AF187F1A7146CE556D1C2168A942D8
:10710000F4D805E01D686146095C451B764671555B
:10711000401C9042E6D920681860F0BDB4020020FF
:10712000A815002068030020F0B587B0044614219C
:107130006846FCF767F812494A6901208005024356
:107140004A6149690125014080260E480591002CBD
:107150000DD0012280210746FCF7DDFE11200190B1
:1071600003200390009602956946384604E000210A
:107170000191009602956946FCF724FE07B0F0BD28
:10718000001002400014004807480221016201215A
:10719000416281624B2109014161044981617D2184
:1071A0000901C161704700002C01002080A9030083
:1071B00010B5FFF707FE10BD10B5FFF7D7FC04218F
:1071C0000F48FDF7A1FD0E490020096888630D48AE
:1071D000FCF73FFA0B48FCF7A3FC04220A490948D4
:1071E000FCF7CCFC094C0AA0221D2168FFF79AF994
:1071F0006069228B010D10A0FFF794F910BD00000B
:1072000074020020C4010020041600203C16002057
:10721000BCECB2E2B5BDB4AED0D0466C6173682CA4
:10722000204944203D20253038582C20D0CDBAC5E7
:107230003A202573200D0A0020202020C8DDC1BF80
:10724000203A2025644DD7D6BDDA2C20C9C8C7F80E
:10725000B4F3D0A1203A202564D7D6BDDA0D0A00B8
:107260004B214901884201DB084602E0002800DA90
:1072700000200249096888637047000074020020FA
:1072800010B57D230146DB0001220248FDF7BCF961
:1072900010BD00001002002001B57D23DB0001229B
:1072A00069460248FDF75CFA08BD000010020020A4
:1072B00086B0FCF745FEFEF74BFD294A294B00201E
:1072C00081008C1824685C50401C3028F8D3264C70
:1072D000A06901252843A061A069284005902348A2
:1072E0000168890889000160016803221143016077
:1072F000FEF788F8606928436061606900222840D1
:10730000059003210920FCF75FFE0920FCF752FEDF
:10731000002203210B20FCF757FE0B20FCF74AFE4E
:10732000FEF7F2F8FEF746F9FEF732F8FEF70EF92F
:1073300004220F490F48FCF721FCFFF73DFF142200
:107340000D496846FBF745FF0021684600F05FF8ED
:107350000749091F0860FFF72BFF00F053F8FEE70D
:107360000030000800000020001002400000014032
:10737000C4000020C40100200C8600080146002043
:10738000842900D0C81C7047F0B50B30C108C90073
:10739000144F0026144A0FE003688B420BD38B4234
:1073A00005D95C1A4318456830C3083B00E04368C0
:1073B000136002C004E0021D10680028ECD13046C2
:1073C000002803D13868002801D00020F0BD064A0B
:1073D00006481060064A121AD208D20044C00120A2
:1073E0003860D7E7C0010020BC0100205C160020F7
:1073F000B818002010B5002800D1012000F07EFF51
:10740000002010BD10B500F091FF002010BD3EB56A
:10741000044608200D46205EFFF7B0FF02A9019147
:107420000090208A2B4682B22168606801F002F841
:10743000012801D000203EBD02983EBDF3B583B0C7
:107440000E461C4903980024884201D10F460C3F88
:10745000788805280BD9305DAA2803D135196878BA
:10746000552806D07888641C801EA042F3DA05B047
:10747000F0BDA878801C00907888011B009881429C
:10748000F5DB0190001F81B2A81CFFF783FC0146C9
:10749000019828182038C27F807F12021018884275
:1074A00004D12946009A0398FEF70CFC0098241892
:1074B000D1E70000B4150020F8B5134C0F46E6687C
:1074C00005462068001D00F07BFE681C07D1002FD8
:1074D00005D021680D48091D00F0AAFEF8BD2068FE
:1074E000751945602168B54204D2A06B091D00F0F2
:1074F00087FEF8BD606B091D00F082FEA06A854220
:10750000F7D2A562F8BD0000D4000020CC04002012
:10751000F8B5054600F098FE294CA068401CA06014
:107520002068284F002803D06069002827D02CE06D
:107530002560A068012828D1002614207043C019B6
:1075400000F050FE761C072EF7D31E488C3000F05A
:1075500049FE1C48A03000F045FE1A48B43000F047
:1075600041FE1848C83000F03DFE1648DC3000F0FF
:1075700039FE14488C3060631430A06305E0206845
:10758000E96AC06A884200D82560606A401C60626F
:10759000E86A2169884200D9206114214843C01952
:1075A000291D00F045FE00F05BFE6069002806D052
:1075B0002068E96AC06A884201D200F093FEF8BDF3
:1075C000D4000020F003002070B5114E114C18E0DB
:1075D00000F0D2FE3068002817D000F0C1FF00F0A4
:1075E00033FEF068C568281D00F0EAFDA068401E63
:1075F000A0606068401E606000F032FE284600F027
:107600000BF860680028E3D170BD00F0A9FFF8E72F
:10761000B8040020D400002010B50446006B00F030
:107620002DFE204600F02AFE10BD000001210E486C
:107630000903420705D0C01DC0080B4AC000821ACA
:10764000891A0A4A0023411809C20839C908C90021
:10765000183A11604B600B600B1A0AC0936001204E
:10766000C0075360D0607047E00400202001002074
:10767000044CFFF7A9FF20680128FAD900F032FE78
:10768000F7E70000F0030020FFB581B00C9C9000EC
:10769000236B001F1818C6080A9DF600700701D05A
:1076A00072B6FEE723180A5C20331A750A5C002ABA
:1076B00002D0401C1028F5D320464030002700900F
:1076C000C770072D00D30625E562A764201D6564F9
:1076D00000F093FD2046183000F08FFD2461072054
:1076E000401B6462A061E764009807743046049A06
:1076F000019900F09FF820600B98002800D00460EA
:1077000005B0F0BD30B5114900E011460A6882426B
:10771000FBD34B685C18844203D14068181848605A
:10772000084643681C18944209D1084C103C246850
:10773000A24209D052689A1842600A681268026030
:10774000814200D0086030BD0460F9E720010020CC
:107750000648416B0968002905D0416BC968C968B2
:107760004968816270470021C943FAE7D4000020CC
:1077700003480068401C72B600D0FEE7FEE7000038
:1077800028010020F8B50546002700F0F5FD284E39
:107790003068002801D1FFF749FFF06805423FD16A
:1077A000002D3DD00835680708D06807400F082134
:1077B000081A4519680701D072B6FEE7002D2FD0D0
:1077C000706885422CD81A48103001460C6801E0D8
:1077D00020460C466168A94202D221680029F7D1EF
:1077E00031688C421CD007682168016060680837E6
:1077F000411B102908D96019420701D072B6FEE773
:1078000041606560FFF77EFF61687068401A7060D4
:10781000B268904200D2B060F0680143002003C417
:1078200000F09EFE780701D072B6FEE73846F8BD3C
:107830001001002010B50124031F24061C601B1F2B
:107840001960191F024B0B60143940380A6010BDD3
:1078500071770008F0B589B00024074607941C2111
:1078600068460894FBF7CEFC1F4D204EEE601D4885
:10787000AC60286039461E48FBF770FC3146FBF7C8
:107880006DFC401E2C6168608020A8612846FDF7D1
:107890000FFA002801D0FBF7DBFE079407A9124876
:1078A0000894FDF751F9002801D0FBF7D1FE6020C4
:1078B0000090FF209130019002200290042269463E
:1078C00004940948FDF78CF9002801D0FBF7C0FEAD
:1078D0000548FDF75DF904210348FDF715FA09B0E5
:1078E000F0BD000000040040740200205F090000A9
:1078F000006CDC0270B5FF2109200131C006FCF7E5
:1079000005FB0B4C0B4D20800121C9032846FCF7D9
:10791000FDFA218840004018208001218903284673
:10792000FCF7F4FA218880004018208070BD000028
:107930008A01002000040048FEB5017905460229AD
:1079400002D10220FEF762F8142000F0D7FC28795B
:10795000022812D019212B48AF237D2201910090DB
:10796000DB00120202212846FEF770FE254C287922
:107970000026A41F012807D038E03223214A022123
:107980002846FEF713FEF1E72089E18888422BD1D3
:107990006089401C80B26081642825D966810020FE
:1079A00000F03AF8184F002240213846FCF7B3FAAD
:1079B000002280213846FCF7AEFA642000F09EFCDD
:1079C000012000F029F8012240213846FCF7A3FAF3
:1079D000012280213846FCF79EFA0A2000F08EFC36
:1079E00001210220FEF722F8E0882081E1880029A9
:1079F00005D1A089401C80B2A081C82801D3A681EE
:107A00006980FEBD760100200014004800214180FD
:107A100041710121017170470121092310B5C9028B
:107A2000DB06002801D0012200E000221846FCF706
:107A300072FA10BD1848FFF7E9FFFFF75BFF00F08F
:107A400007FB164C16492061401E884201D20120D6
:107A500020700126002576020927FF060E48FFF751
:107A60006BFF0D48FFF7F6F96088401C80B260801C
:107A700014280BD0282805D3002231463846FCF7BD
:107A80004AFA6580142000F039FCE7E7012231460C
:107A90003846FCF740FAF5E70E160020700100208A
:107AA000FEFFFF0070B508252846FFF76DFC044671
:107AB000AA202070552060700620A0700320E0707E
:107AC0002220207101206071204600F011FA2A4620
:107AD00021460348FEF7F6F82046FFF7AFFA70BDDF
:107AE000B4150020F8B5074608260D463046FFF7C6
:107AF0004BFC0446AA202070552060700620A07020
:107B00000220E0702320207101206071A87969793A
:107B1000000240183880A8796979000240180749A6
:107B2000C860204600F0E4F9324621460448FEF7DA
:107B3000C9F82046FFF782FAF8BD00008401002052
:107B4000B415002070B505462448814244D1112661
:107B50003046FFF719FCAA210170552141700F2111
:107B600081700321C170212101712978044641717E
:107B70002888010AA171A978E171E978217229792F
:107B80006172A888010AA172A979E172E888010AE4
:107B900021730820285E014661730820285EC11702
:107BA000090E081801120E48A1734078012803D16C
:107BB000FE206071FF20A071204600F099F9324646
:107BC00021460848FBF705FB324621460648FEF7EA
:107BD00079F82046FFF732FA70BD0000B4020020A9
:107BE0008401002026160020B415002070B50B2556
:107BF0002846FFF7C9FB0446AA2020705520607074
:107C00000920A0700320E070242020710220607100
:107C10000020A0710848C188E171080A207220463E
:107C200000F066F92A4621460448FEF74BF8204644
:107C3000FFF704FA70BD000084010020B415002095
:107C400070B510252846FFF79FFB0446AA20207038
:107C5000552060700620A0700320E0702520207160
:107C600000216171A171E17121726172A172E172F1
:107C700021736173A173204600F03AF92A46214628
:107C80000348FEF71FF82046FFF7D8F970BD000043
:107C9000B415002070B50F252846FFF775FB044684
:107CA000AA202070552060700D20A0700320E07085
:107CB00027202071012060710A4800210078A071FE
:107CC000E17121726172A172E1722173204600F0AC
:107CD0000FF92A4621460448FDF7F4FF2046FFF736
:107CE000ADF970BD70010020B415002010B5054835
:107CF0000088002804D1034803490C3000F006F83E
:107D000010BD0000A8150020B4020020F8B50446FC
:107D100040780026C0000F460519287901280AD0AE
:107D20006078002812D0401EC0B2C000001901794E
:107D300000290DD010E00020AE6828712046FDF724
:107D400053FC31463846FDF77BFCF8BD0320ECE7D9
:107D500080686421FBF756FA2046FDF745FC761C47
:107D6000042EDADBF8BD000070B50646082528466B
:107D7000FFF70AFB0446AA202070552060700620F9
:107D8000A0700320E070322020716671204600F060
:107D9000AFF82A4621460348FDF794FF2046FFF737
:107DA0004DF970BDB415002070B51F252846FFF7AA
:107DB000EBFA0446AA202070552060701D20A070A8
:107DC0000320E07033201F4920710A6A100E607191
:107DD000100CA071100AE07122724A6A100E6072D3
:107DE000100CA072100AE07222738A6A100E60737F
:107DF000100CA073100AE07322744A69100E6074AC
:107E0000100CA074100AE07422758A69100E607557
:107E1000100CA075100AE0752276C969080E60760C
:107E2000080CA076080AE0762177204600F060F87A
:107E30002A4621460448FDF745FF2046FFF7FEF895
:107E400070BD00002C010020B415002070B529255C
:107E50002846FFF799FAAA21017055214170272180
:107E600081700321C170312101711E4904460888C7
:107E7000020A62710A78A2714888020AE2718A785D
:107E800022720889020A6272097AA1721649088868
:107E9000020AE2720A7822734888020A62738A78B8
:107EA000A2730A79E2734A792274CA880020130AFD
:107EB0006374A2740A7AE2744A7A2275897A6175C7
:107EC00011212218401C91751128FADB204600F080
:107ED0000FF82A4621460548FDF7F4FE2046FFF735
:107EE000ADF870BDE21500200E160020B41500207C
:107EF00070B504460078AA280CD16078552809D1BD
:107F0000A578A81E81B2A01CFEF744FF6055000AA8
:107F10006119487070BD000030B5164B0021D96062
:107F20004479154A012C16D099708179C4790902D7
:107F300009199980047A457A24026419DC80847ACC
:107F4000C57A240264191C81047B407B240220181A
:107F50005881518030BD9980D9801981598101247F
:107F60009C70D18091801180817BC07B09020818B0
:107F7000508030BD2C010020E215002010B50246D3
:107F80004079012846D09179507A09064018D17974
:107F9000137A09041B02C918411820480162937A18
:107FA000517B1B06C918D37A147B1B0424021B19AE
:107FB000C9184162937B517C1B06C918D37B147C82
:107FC0001B0424021B19C9188162937C517D1B0676
:107FD000C918D37C147D1B0424021B19C9184161E4
:107FE000937D517E1B06C918D37D147E1B04240289
:107FF0001B19C9188161937E517F1B06C918D37E56
:10800000147F1B0424021B19C918C1615079FFF7A2
:10801000ABFE10BDFFF7B8F8F8E700002C01002018
:1080200000230A4A342907D0352904D141795170F7
:10803000012904D01361704741791170F8E7817903
:10804000C079090208181061704700002C01002057
:1080500010B5002000F070F89F20FFF71DF9FEF723
:10806000B9FD0A4C2070FEF7B5FD6070FEF7B2FD59
:10807000A070012000F060F8207861780004090207
:108080000843A1780843606010BD00009C010020F7
:1080900070B5FFF7DDFF144C14492060144E154DE8
:1080A000401809D01449401808D0144940180BD082
:1080B000012810D012A102E015A100E017A1201D97
:1080C000FBF7ABF866610DE017A1201DFBF7A5F8E3
:1080D0000120C00505E016A1201DFBF79EF8012038
:1080E00000066061258370BD3C160020BFDA40FFAA
:1080F00000002000001000002C05FDFFFEDFD2FF75
:10810000556E6B6E6F7720466C61736800000000DF
:108110005353543235564630313642004D5832357D
:108120004C31363036450000573235513634000078
:108130005732355131323800092310B5DB0600289B
:1081400005D0012210211846FBF7E5FE10BD0022E4
:10815000F8E710B50020FFF7EFFF0520FFF79CF8C8
:10816000FEF738FDC007FBD10120FFF7E5FF10BD8A
:10817000F8B50120104E0025307075702C46E000D7
:1081800087193D716420FFF7FFF8641CB860042C68
:10819000F5DB094864220C3885604560058001469E
:1081A0004580C8390548FCF7FFFE044800680168AF
:1081B000102211430160F8BDB4150020B402002064
:1081C0004368826801699A60836842685A604A68B5
:1081D000824201D182684A60002202610868401E22
:1081E000086070470146083100224160D243C160F7
:1081F00082600161002101607047002101617047C8
:1082000030B50B685A1C02D00246083202E00269FF
:1082100004E02246546825689D42FAD953684B60B1
:1082200099608A60516008610168491C016030BD35
:1082300042684A6093688B609368596091600861F6
:108240000168491C0160704772B604480168491C06
:108250000160BFF34F8FBFF36F8F7047280100207D
:1082600005490868002804D0401E086000D162B6A5
:10827000704772B6FEE700002801002070B50028A4
:108280001AD004460D4D083C6068E968084201D1E7
:1082900072B6FEE72268002A01D072B6FEE7884374
:1082A000606000F069F8606869684018686020469E
:1082B000FFF728FA00F054F970BD0000100100200B
:1082C00010B506487D21C9000068FAF747FF044948
:1082D000401E48610720086110BD0000D00000204A
:1082E00000E000E00120044900074860BFF34F8F21
:1082F000BFF36F8F7047000000ED00E010B5020083
:108300000FD00948006B002801D072B6FEE700F0DC
:1083100033F800211046FFF7CFF800F021F90028CC
:1083200001D1FFF7DFFF10BDD40000201CB50E48BF
:1083300000240190234680220CA100940D4800F0F7
:1083400079F8012803D0401C0CD172B6FEE772B652
:1083500000210548C9432C38816201214161C46074
:1083600000F03EF81CBD00000001002049444C45CF
:1083700000000000717600080248016B491C01638F
:1083800070470000D400002010B51348016B00298D
:1083900002D00121C16110BD0021C16101690F4AF4
:1083A00002E0002915D0491E14234B43D358002B5B
:1083B000F7D014234B439A18536814465B6808346B
:1083C0005360A34201D15B685360DA6802600161C7
:1083D00010BD72B6FEE70000D4000020F0030020BC
:1083E00010B50948016AFF22120411430162016AB3
:1083F000120211430162FFF763FF04490020086085
:10840000FAF762FE002010BD00ED00E02801002018
:1084100010B5FAF76DFE044600F044F8002803D0CA
:1084200001200349000748602046FAF765FE10BDA9
:1084300000ED00E0FFB585B0164690000F9FFFF7F6
:10844000A1F905001AD05420FFF79CF9040012D0BE
:10845000256300210E980391019700900294324603
:10846000089B06990598FFF70FF92046FFF750F88B
:10847000012009B0F0BD2846FFF700FF0020C043EF
:10848000F7E7000006484169002904D0006B002886
:1084900003D0002070470120704702207047000081
:1084A000D4000020F8B52C4C0027206B002808D001
:1084B000A069401CA061E069002800D0012738466F
:1084C000F8BDE668761CE6600ED1606B0068002897
:1084D00001D072B6FEE7606BA16B6163A063206A96
:1084E000401C2062FFF734F9A06A86420AD3606B11
:1084F0000068002810D0606BC068C5686868864254
:108500000DD2A06220681421C06A4843134908585C
:108510000128D0D90127CEE70020C043F1E7281D6C
:10852000FFF74EFEA86A002803D028461830FFF750
:1085300047FEE86A2169884200D920611421484336
:1085400006494018291DFFF773FEE86A2168C96AC9
:108550008842CCD30127CAE7D4000020F0030020D2
:10856000F8B5284C0025206B2E46002808D0FFF7D0
:108570006BFE206B401E2063206B002802D03DE084
:1085800072B6FEE7A168204F00291DD136E0F868D9
:10859000C56828461830FFF713FE281DFFF710FEA8
:1085A000E86A2169884200D92061142148431649AC
:1085B000B4394018291DFFF73BFEE86A2168C96AF3
:1085C000884201D30120E06138680028DFD1002D06
:1085D00001D0FFF7BDF8A569002D09D00127FFF7ED
:1085E00061FF002800D0E7616D1EF8D10020A06176
:1085F000E069002802D00126FFF774FEFFF730FE85
:108600003046F8BDD4000020A40400206092000889
:10861000355D0008000000000000000000010000BF
:108620000000000000000000010203040607080922
:10863000000000000102030400002110422063300A
:108640008440A550C660E770088129914AA16BB1AA
:108650008CC1ADD1CEE1EFF1311210027332522252
:10866000B5529442F772D662399318837BB35AA3FA
:10867000BDD39CC3FFF3DEE3622443342004011422
:10868000E664C774A44485546AA54BB5288509954A
:10869000EEE5CFF5ACC58DD55336722611163006F2
:1086A000D776F6669556B4465BB77AA7199738879A
:1086B000DFF7FEE79DD7BCC7C448E5588668A778B2
:1086C0004008611802282338CCC9EDD98EE9AFF9EA
:1086D000488969990AA92BB9F55AD44AB77A966A92
:1086E000711A500A333A122AFDDBDCCBBFFB9EEB3A
:1086F000799B588B3BBB1AABA66C877CE44CC55C62
:10870000222C033C600C411CAEED8FFDECCDCDDD89
:108710002AAD0BBD688D499D977EB66ED55EF44E31
:10872000133E322E511E700E9FFFBEEFDDDFFCCFD9
:108730001BBF3AAF599F788F8891A981CAB1EBA12D
:108740000CD12DC14EF16FE18010A100C230E320A9
:108750000450254046706760B9839893FBA3DAB351
:108760003DC31CD37FE35EF3B1029012F322D232F9
:108770003542145277625672EAB5CBA5A895898521
:108780006EF54FE52CD50DC5E234C324A014810449
:108790006674476424540544DBA7FAB79987B897F1
:1087A0005FE77EF71DC73CD7D326F2369106B01699
:1087B00057667676154634564CD96DC90EF92FE9B1
:1087C000C899E9898AB9ABA94458654806782768E9
:1087D000C018E1088238A3287DCB5CDB3FEB1EFB91
:1087E000F98BD89BBBAB9ABB754A545A376A167A39
:1087F000F10AD01AB32A923A2EFD0FED6CDD4DCD61
:10880000AABD8BADE89DC98D267C076C645C454C88
:10881000A23C832CE01CC10C1FEF3EFF5DCF7CDF30
:108820009BAFBABFD98FF89F176E367E554E745ED8
:10883000932EB23ED10EF01E6E0F6D0F6C0F6B0FAC
:108840006A0F690F690F680F670F660F650F640F76
:10885000630F620F620F610F600F5F0F5E0F5D0F9E
:108860005C0F5B0F5A0F590F580F570F560F550FCC
:10887000550F540F530F520F510F500F4F0F4E0FF4
:108880004D0F4C0F4B0F4A0F490F480F470F460F24
:10889000440F430F420F410F400F3F0F3E0F3D0F5C
:1088A0003C0F3B0F3A0F390F380F370F360F340F8D
:1088B000330F320F310F300F2F0F2E0F2D0F2B0FC5
:1088C0002A0F290F280F270F260F240F230F220FFF
:1088D000210F200F1E0F1D0F1C0F1B0F1A0F180F3B
:1088E000170F160F150F130F120F110F100F0E0F7A
:1088F0000D0F0C0F0B0F090F080F070F050F040FBB
:10890000030F010F000FFF0EFD0EFC0EFB0EF90E04
:10891000F80EF70EF50EF40EF30EF10EF00EEE0E4D
:10892000ED0EEC0EEA0EE90EE70EE60EE40EE30E97
:10893000E10EE00EDF0EDD0EDC0EDA0ED90ED70EE4
:10894000D60ED40ED30ED10ED00ECE0ECD0ECB0E33
:10895000C90EC80EC60EC50EC30EC20EC00EBE0E88
:10896000BD0EBB0EBA0EB80EB60EB50EB30EB10EDE
:10897000B00EAE0EAD0EAB0EA90EA80EA60EA40E36
:10898000A20EA10E9F0E9D0E9C0E9A0E980E960E94
:10899000950E930E910E8F0E8E0E8C0E8A0E880EF3
:1089A000860E850E830E810E7F0E7D0E7B0E7A0E57
:1089B000780E760E740E720E700E6E0E6D0E6B0EBD
:1089C000690E670E650E630E610E5F0E5D0E5B0E27
:1089D000590E570E550E530E510E4F0E4D0E4B0E97
:1089E000490E470E450E430E410E3F0E3D0E3B0E07
:1089F000390E370E350E330E310E2E0E2C0E2A0E7A
:108A0000280E260E240E220E200E1D0E1B0E190EF1
:108A1000170E150E120E100E0E0E0C0E0A0E070E6D
:108A2000050E030E010EFE0DFC0DFA0DF80DF50DF1
:108A3000F30DF10DEE0DEC0DEA0DE70DE50DE30D77
:108A4000E00DDE0DDC0DD90DD70DD40DD20DD00DFE
:108A5000CD0DCB0DC80DC60DC40DC10DBF0DBC0D88
:108A6000BA0DB70DB50DB20DB00DAD0DAB0DA80D16
:108A7000A60DA30DA10D9E0D9B0D990D960D940DA8
:108A8000910D8F0D8C0D890D870D840D810D7F0D3E
:108A90007C0D7A0D770D740D720D6F0D6C0D690DD7
:108AA000670D640D610D5F0D5C0D590D560D540D74
:108AB000510D4E0D4B0D490D460D430D400D3D0D15
:108AC0003A0D380D350D320D2F0D2C0D290D270DBA
:108AD000240D210D1E0D1B0D180D150D120D0F0D62
